{
  "_format": "hh-sol-artifact-1",
  "contractName": "PushGuard",
  "sourceName": "contracts/PushGuard.sol",
  "abi": [
    {
      "inputs": [],
      "stateMutability": "nonpayable",
      "type": "constructor"
    },
    {
      "anonymous": false,
      "inputs": [
        {
          "indexed": false,
          "internalType": "bool",
          "name": "newStatus",
          "type": "bool"
        },
        {
          "indexed": true,
          "internalType": "address",
          "name": "caller",
          "type": "address"
        },
        {
          "indexed": false,
          "internalType": "string",
          "name": "chainNamespace",
          "type": "string"
        },
        {
          "indexed": false,
          "internalType": "string",
          "name": "chainId",
          "type": "string"
        }
      ],
      "name": "GuardToggled",
      "type": "event"
    },
    {
      "anonymous": false,
      "inputs": [
        {
          "indexed": true,
          "internalType": "address",
          "name": "caller",
          "type": "address"
        },
        {
          "indexed": false,
          "internalType": "string",
          "name": "threatType",
          "type": "string"
        },
        {
          "indexed": false,
          "internalType": "string",
          "name": "details",
          "type": "string"
        },
        {
          "indexed": false,
          "internalType": "string",
          "name": "chainNamespace",
          "type": "string"
        },
        {
          "indexed": false,
          "internalType": "string",
          "name": "chainId",
          "type": "string"
        }
      ],
      "name": "ThreatDetected",
      "type": "event"
    },
    {
      "inputs": [
        {
          "internalType": "bytes",
          "name": "",
          "type": "bytes"
        }
      ],
      "name": "guardActive",
      "outputs": [
        {
          "internalType": "bool",
          "name": "",
          "type": "bool"
        }
      ],
      "stateMutability": "view",
      "type": "function"
    },
    {
      "inputs": [
        {
          "internalType": "string",
          "name": "chainNamespace",
          "type": "string"
        },
        {
          "internalType": "string",
          "name": "chainId",
          "type": "string"
        }
      ],
      "name": "isGuardActive",
      "outputs": [
        {
          "internalType": "bool",
          "name": "",
          "type": "bool"
        }
      ],
      "stateMutability": "view",
      "type": "function"
    },
    {
      "inputs": [
        {
          "internalType": "string",
          "name": "threatType",
          "type": "string"
        },
        {
          "internalType": "string",
          "name": "details",
          "type": "string"
        }
      ],
      "name": "reportThreat",
      "outputs": [],
      "stateMutability": "nonpayable",
      "type": "function"
    },
    {
      "inputs": [
        {
          "internalType": "bool",
          "name": "enable",
          "type": "bool"
        }
      ],
      "name": "toggleGuard",
      "outputs": [],
      "stateMutability": "nonpayable",
      "type": "function"
    }
  ],
  "bytecode": "0x608060405234801561001057600080fd5b506108fa806100206000396000f3fe608060405234801561001057600080fd5b506004361061004c5760003560e01c806337b806761461005157806390b6263514610081578063c5eeeacd146100b1578063db446f1f146100cd575b600080fd5b61006b600480360381019061006691906103eb565b6100e9565b604051610078919061044f565b60405180910390f35b61009b600480360381019061009691906104ca565b61011f565b6040516100a8919061044f565b60405180910390f35b6100cb60048036038101906100c69190610577565b610181565b005b6100e760048036038101906100e291906104ca565b610231565b005b6000818051602081018201805184825260208301602085012081835280955050505050506000915054906101000a900460ff1681565b600080858585856040516020016101399493929190610620565b604051602081830303815290604052905060008160405161015a91906106c4565b908152602001604051809103902060009054906101000a900460ff16915050949350505050565b6000339050600060405160200161019790610773565b6040516020818303038152906040529050826000826040516101b991906106c4565b908152602001604051809103902060006101000a81548160ff0219169083151502179055508173ffffffffffffffffffffffffffffffffffffffff167f0137a324de4bdc916a77a982b093c973684c5203945a8751d02dc959900197f38460405161022491906107f5565b60405180910390a2505050565b60003390508073ffffffffffffffffffffffffffffffffffffffff167f137e027d3ac6d777e3d085aa24a76057087484370ca5ddc36d0a0d7686d988fe868686866040516102829493929190610863565b60405180910390a25050505050565b6000604051905090565b600080fd5b600080fd5b600080fd5b600080fd5b6000601f19601f8301169050919050565b7f4e487b7100000000000000000000000000000000000000000000000000000000600052604160045260246000fd5b6102f8826102af565b810181811067ffffffffffffffff82111715610317576103166102c0565b5b80604052505050565b600061032a610291565b905061033682826102ef565b919050565b600067ffffffffffffffff821115610356576103556102c0565b5b61035f826102af565b9050602081019050919050565b82818337600083830152505050565b600061038e6103898461033b565b610320565b9050828152602081018484840111156103aa576103a96102aa565b5b6103b584828561036c565b509392505050565b600082601f8301126103d2576103d16102a5565b5b81356103e284826020860161037b565b91505092915050565b6000602082840312156104015761040061029b565b5b600082013567ffffffffffffffff81111561041f5761041e6102a0565b5b61042b848285016103bd565b91505092915050565b60008115159050919050565b61044981610434565b82525050565b60006020820190506104646000830184610440565b92915050565b600080fd5b600080fd5b60008083601f84011261048a576104896102a5565b5b8235905067ffffffffffffffff8111156104a7576104a661046a565b5b6020830191508360018202830111156104c3576104c261046f565b5b9250929050565b600080600080604085870312156104e4576104e361029b565b5b600085013567ffffffffffffffff811115610502576105016102a0565b5b61050e87828801610474565b9450945050602085013567ffffffffffffffff811115610531576105306102a0565b5b61053d87828801610474565b925092505092959194509250565b61055481610434565b811461055f57600080fd5b50565b6000813590506105718161054b565b92915050565b60006020828403121561058d5761058c61029b565b5b600061059b84828501610562565b91505092915050565b600081905092915050565b60006105bb83856105a4565b93506105c883858461036c565b82840190509392505050565b7f3a00000000000000000000000000000000000000000000000000000000000000600082015250565b600061060a6001836105a4565b9150610615826105d4565b600182019050919050565b600061062d8286886105af565b9150610638826105fd565b91506106458284866105af565b915081905095945050505050565b600081519050919050565b600081905092915050565b60005b8381101561068757808201518184015260208101905061066c565b60008484015250505050565b600061069e82610653565b6106a8818561065e565b93506106b8818560208601610669565b80840191505092915050565b60006106d08284610693565b915081905092915050565b7f7075736800000000000000000000000000000000000000000000000000000000600082015250565b60006107116004836105a4565b915061071c826106db565b600482019050919050565b7f3930303000000000000000000000000000000000000000000000000000000000600082015250565b600061075d6004836105a4565b915061076882610727565b600482019050919050565b600061077e82610704565b9150610789826105fd565b915061079482610750565b9150819050919050565b600082825260208201905092915050565b60006107bc60048361079e565b91506107c7826106db565b602082019050919050565b60006107df60048361079e565b91506107ea82610727565b602082019050919050565b600060608201905061080a6000830184610440565b818103602083015261081b816107af565b9050818103604083015261082e816107d2565b905092915050565b6000610842838561079e565b935061084f83858461036c565b610858836102af565b840190509392505050565b6000608082019050818103600083015261087e818688610836565b90508181036020830152610893818486610836565b905081810360408301526108a6816107af565b905081810360608301526108b9816107d2565b90509594505050505056fea26469706673582212200e97adf881f3c0c34e32c34a2c188de8a8f9bb4134c1949bad7c52680c5c616a64736f6c63430008160033",
  "linkReferences": {},
  "deployedLinkReferences": {}
}