{"contracts/PushGuard.sol":{"PushGuard":{"abi":[{"inputs":[],"stateMutability":"nonpayable","type":"constructor"},{"anonymous":false,"inputs":[{"indexed":false,"internalType":"bool","name":"newStatus","type":"bool"},{"indexed":true,"internalType":"address","name":"caller","type":"address"},{"indexed":false,"internalType":"string","name":"chainNamespace","type":"string"},{"indexed":false,"internalType":"string","name":"chainId","type":"string"}],"name":"GuardToggled","type":"event"},{"anonymous":false,"inputs":[{"indexed":true,"internalType":"address","name":"caller","type":"address"},{"indexed":false,"internalType":"string","name":"threatType","type":"string"},{"indexed":false,"internalType":"string","name":"details","type":"string"},{"indexed":false,"internalType":"string","name":"chainNamespace","type":"string"},{"indexed":false,"internalType":"string","name":"chainId","type":"string"}],"name":"ThreatDetected","type":"event"},{"inputs":[{"internalType":"bytes","name":"","type":"bytes"}],"name":"guardActive","outputs":[{"internalType":"bool","name":"","type":"bool"}],"stateMutability":"view","type":"function"},{"inputs":[{"internalType":"string","name":"chainNamespace","type":"string"},{"internalType":"string","name":"chainId","type":"string"}],"name":"isGuardActive","outputs":[{"internalType":"bool","name":"","type":"bool"}],"stateMutability":"view","type":"function"},{"inputs":[{"internalType":"string","name":"threatType","type":"string"},{"internalType":"string","name":"details","type":"string"}],"name":"reportThreat","outputs":[],"stateMutability":"nonpayable","type":"function"},{"inputs":[{"internalType":"bool","name":"enable","type":"bool"}],"name":"toggleGuard","outputs":[],"stateMutability":"nonpayable","type":"function"}],"evm":{"bytecode":{"linkReferences":{},"object":"608060405234801561001057600080fd5b506108fa806100206000396000f3fe608060405234801561001057600080fd5b506004361061004c5760003560e01c806337b806761461005157806390b6263514610081578063c5eeeacd146100b1578063db446f1f146100cd575b600080fd5b61006b600480360381019061006691906103eb565b6100e9565b604051610078919061044f565b60405180910390f35b61009b600480360381019061009691906104ca565b61011f565b6040516100a8919061044f565b60405180910390f35b6100cb60048036038101906100c69190610577565b610181565b005b6100e760048036038101906100e291906104ca565b610231565b005b6000818051602081018201805184825260208301602085012081835280955050505050506000915054906101000a900460ff1681565b600080858585856040516020016101399493929190610620565b604051602081830303815290604052905060008160405161015a91906106c4565b908152602001604051809103902060009054906101000a900460ff16915050949350505050565b6000339050600060405160200161019790610773565b6040516020818303038152906040529050826000826040516101b991906106c4565b908152602001604051809103902060006101000a81548160ff0219169083151502179055508173ffffffffffffffffffffffffffffffffffffffff167f0137a324de4bdc916a77a982b093c973684c5203945a8751d02dc959900197f38460405161022491906107f5565b60405180910390a2505050565b60003390508073ffffffffffffffffffffffffffffffffffffffff167f137e027d3ac6d777e3d085aa24a76057087484370ca5ddc36d0a0d7686d988fe868686866040516102829493929190610863565b60405180910390a25050505050565b6000604051905090565b600080fd5b600080fd5b600080fd5b600080fd5b6000601f19601f8301169050919050565b7f4e487b7100000000000000000000000000000000000000000000000000000000600052604160045260246000fd5b6102f8826102af565b810181811067ffffffffffffffff82111715610317576103166102c0565b5b80604052505050565b600061032a610291565b905061033682826102ef565b919050565b600067ffffffffffffffff821115610356576103556102c0565b5b61035f826102af565b9050602081019050919050565b82818337600083830152505050565b600061038e6103898461033b565b610320565b9050828152602081018484840111156103aa576103a96102aa565b5b6103b584828561036c565b509392505050565b600082601f8301126103d2576103d16102a5565b5b81356103e284826020860161037b565b91505092915050565b6000602082840312156104015761040061029b565b5b600082013567ffffffffffffffff81111561041f5761041e6102a0565b5b61042b848285016103bd565b91505092915050565b60008115159050919050565b61044981610434565b82525050565b60006020820190506104646000830184610440565b92915050565b600080fd5b600080fd5b60008083601f84011261048a576104896102a5565b5b8235905067ffffffffffffffff8111156104a7576104a661046a565b5b6020830191508360018202830111156104c3576104c261046f565b5b9250929050565b600080600080604085870312156104e4576104e361029b565b5b600085013567ffffffffffffffff811115610502576105016102a0565b5b61050e87828801610474565b9450945050602085013567ffffffffffffffff811115610531576105306102a0565b5b61053d87828801610474565b925092505092959194509250565b61055481610434565b811461055f57600080fd5b50565b6000813590506105718161054b565b92915050565b60006020828403121561058d5761058c61029b565b5b600061059b84828501610562565b91505092915050565b600081905092915050565b60006105bb83856105a4565b93506105c883858461036c565b82840190509392505050565b7f3a00000000000000000000000000000000000000000000000000000000000000600082015250565b600061060a6001836105a4565b9150610615826105d4565b600182019050919050565b600061062d8286886105af565b9150610638826105fd565b91506106458284866105af565b915081905095945050505050565b600081519050919050565b600081905092915050565b60005b8381101561068757808201518184015260208101905061066c565b60008484015250505050565b600061069e82610653565b6106a8818561065e565b93506106b8818560208601610669565b80840191505092915050565b60006106d08284610693565b915081905092915050565b7f7075736800000000000000000000000000000000000000000000000000000000600082015250565b60006107116004836105a4565b915061071c826106db565b600482019050919050565b7f3930303000000000000000000000000000000000000000000000000000000000600082015250565b600061075d6004836105a4565b915061076882610727565b600482019050919050565b600061077e82610704565b9150610789826105fd565b915061079482610750565b9150819050919050565b600082825260208201905092915050565b60006107bc60048361079e565b91506107c7826106db565b602082019050919050565b60006107df60048361079e565b91506107ea82610727565b602082019050919050565b600060608201905061080a6000830184610440565b818103602083015261081b816107af565b9050818103604083015261082e816107d2565b905092915050565b6000610842838561079e565b935061084f83858461036c565b610858836102af565b840190509392505050565b6000608082019050818103600083015261087e818688610836565b90508181036020830152610893818486610836565b905081810360408301526108a6816107af565b905081810360608301526108b9816107d2565b90509594505050505056fea26469706673582212200e97adf881f3c0c34e32c34a2c188de8a8f9bb4134c1949bad7c52680c5c616a64736f6c63430008160033","opcodes":"PUSH1 0x80 PUSH1 0x40 MSTORE CALLVALUE DUP1 ISZERO PUSH2 0x10 JUMPI PUSH1 0x0 DUP1 REVERT JUMPDEST POP PUSH2 0x8FA DUP1 PUSH2 0x20 PUSH1 0x0 CODECOPY PUSH1 0x0 RETURN INVALID PUSH1 0x80 PUSH1 0x40 MSTORE CALLVALUE DUP1 ISZERO PUSH2 0x10 JUMPI PUSH1 0x0 DUP1 REVERT JUMPDEST POP PUSH1 0x4 CALLDATASIZE LT PUSH2 0x4C JUMPI PUSH1 0x0 CALLDATALOAD PUSH1 0xE0 SHR DUP1 PUSH4 0x37B80676 EQ PUSH2 0x51 JUMPI DUP1 PUSH4 0x90B62635 EQ PUSH2 0x81 JUMPI DUP1 PUSH4 0xC5EEEACD EQ PUSH2 0xB1 JUMPI DUP1 PUSH4 0xDB446F1F EQ PUSH2 0xCD JUMPI JUMPDEST PUSH1 0x0 DUP1 REVERT JUMPDEST PUSH2 0x6B PUSH1 0x4 DUP1 CALLDATASIZE SUB DUP2 ADD SWAP1 PUSH2 0x66 SWAP2 SWAP1 PUSH2 0x3EB JUMP JUMPDEST PUSH2 0xE9 JUMP JUMPDEST PUSH1 0x40 MLOAD PUSH2 0x78 SWAP2 SWAP1 PUSH2 0x44F JUMP JUMPDEST PUSH1 0x40 MLOAD DUP1 SWAP2 SUB SWAP1 RETURN JUMPDEST PUSH2 0x9B PUSH1 0x4 DUP1 CALLDATASIZE SUB DUP2 ADD SWAP1 PUSH2 0x96 SWAP2 SWAP1 PUSH2 0x4CA JUMP JUMPDEST PUSH2 0x11F JUMP JUMPDEST PUSH1 0x40 MLOAD PUSH2 0xA8 SWAP2 SWAP1 PUSH2 0x44F JUMP JUMPDEST PUSH1 0x40 MLOAD DUP1 SWAP2 SUB SWAP1 RETURN JUMPDEST PUSH2 0xCB PUSH1 0x4 DUP1 CALLDATASIZE SUB DUP2 ADD SWAP1 PUSH2 0xC6 SWAP2 SWAP1 PUSH2 0x577 JUMP JUMPDEST PUSH2 0x181 JUMP JUMPDEST STOP JUMPDEST PUSH2 0xE7 PUSH1 0x4 DUP1 CALLDATASIZE SUB DUP2 ADD SWAP1 PUSH2 0xE2 SWAP2 SWAP1 PUSH2 0x4CA JUMP JUMPDEST PUSH2 0x231 JUMP JUMPDEST STOP JUMPDEST PUSH1 0x0 DUP2 DUP1 MLOAD PUSH1 0x20 DUP2 ADD DUP3 ADD DUP1 MLOAD DUP5 DUP3 MSTORE PUSH1 0x20 DUP4 ADD PUSH1 0x20 DUP6 ADD KECCAK256 DUP2 DUP4 MSTORE DUP1 SWAP6 POP POP POP POP POP POP PUSH1 0x0 SWAP2 POP SLOAD SWAP1 PUSH2 0x100 EXP SWAP1 DIV PUSH1 0xFF AND DUP2 JUMP JUMPDEST PUSH1 0x0 DUP1 DUP6 DUP6 DUP6 DUP6 PUSH1 0x40 MLOAD PUSH1 0x20 ADD PUSH2 0x139 SWAP5 SWAP4 SWAP3 SWAP2 SWAP1 PUSH2 0x620 JUMP JUMPDEST PUSH1 0x40 MLOAD PUSH1 0x20 DUP2 DUP4 SUB SUB DUP2 MSTORE SWAP1 PUSH1 0x40 MSTORE SWAP1 POP PUSH1 0x0 DUP2 PUSH1 0x40 MLOAD PUSH2 0x15A SWAP2 SWAP1 PUSH2 0x6C4 JUMP JUMPDEST SWAP1 DUP2 MSTORE PUSH1 0x20 ADD PUSH1 0x40 MLOAD DUP1 SWAP2 SUB SWAP1 KECCAK256 PUSH1 0x0 SWAP1 SLOAD SWAP1 PUSH2 0x100 EXP SWAP1 DIV PUSH1 0xFF AND SWAP2 POP POP SWAP5 SWAP4 POP POP POP POP JUMP JUMPDEST PUSH1 0x0 CALLER SWAP1 POP PUSH1 0x0 PUSH1 0x40 MLOAD PUSH1 0x20 ADD PUSH2 0x197 SWAP1 PUSH2 0x773 JUMP JUMPDEST PUSH1 0x40 MLOAD PUSH1 0x20 DUP2 DUP4 SUB SUB DUP2 MSTORE SWAP1 PUSH1 0x40 MSTORE SWAP1 POP DUP3 PUSH1 0x0 DUP3 PUSH1 0x40 MLOAD PUSH2 0x1B9 SWAP2 SWAP1 PUSH2 0x6C4 JUMP JUMPDEST SWAP1 DUP2 MSTORE PUSH1 0x20 ADD PUSH1 0x40 MLOAD DUP1 SWAP2 SUB SWAP1 KECCAK256 PUSH1 0x0 PUSH2 0x100 EXP DUP2 SLOAD DUP2 PUSH1 0xFF MUL NOT AND SWAP1 DUP4 ISZERO ISZERO MUL OR SWAP1 SSTORE POP DUP2 PUSH20 0xFFFFFFFFFFFFFFFFFFFFFFFFFFFFFFFFFFFFFFFF AND PUSH32 0x137A324DE4BDC916A77A982B093C973684C5203945A8751D02DC959900197F3 DUP5 PUSH1 0x40 MLOAD PUSH2 0x224 SWAP2 SWAP1 PUSH2 0x7F5 JUMP JUMPDEST PUSH1 0x40 MLOAD DUP1 SWAP2 SUB SWAP1 LOG2 POP POP POP JUMP JUMPDEST PUSH1 0x0 CALLER SWAP1 POP DUP1 PUSH20 0xFFFFFFFFFFFFFFFFFFFFFFFFFFFFFFFFFFFFFFFF AND PUSH32 0x137E027D3AC6D777E3D085AA24A76057087484370CA5DDC36D0A0D7686D988FE DUP7 DUP7 DUP7 DUP7 PUSH1 0x40 MLOAD PUSH2 0x282 SWAP5 SWAP4 SWAP3 SWAP2 SWAP1 PUSH2 0x863 JUMP JUMPDEST PUSH1 0x40 MLOAD DUP1 SWAP2 SUB SWAP1 LOG2 POP POP POP POP POP JUMP JUMPDEST PUSH1 0x0 PUSH1 0x40 MLOAD SWAP1 POP SWAP1 JUMP JUMPDEST PUSH1 0x0 DUP1 REVERT JUMPDEST PUSH1 0x0 DUP1 REVERT JUMPDEST PUSH1 0x0 DUP1 REVERT JUMPDEST PUSH1 0x0 DUP1 REVERT JUMPDEST PUSH1 0x0 PUSH1 0x1F NOT PUSH1 0x1F DUP4 ADD AND SWAP1 POP SWAP2 SWAP1 POP JUMP JUMPDEST PUSH32 0x4E487B7100000000000000000000000000000000000000000000000000000000 PUSH1 0x0 MSTORE PUSH1 0x41 PUSH1 0x4 MSTORE PUSH1 0x24 PUSH1 0x0 REVERT JUMPDEST PUSH2 0x2F8 DUP3 PUSH2 0x2AF JUMP JUMPDEST DUP2 ADD DUP2 DUP2 LT PUSH8 0xFFFFFFFFFFFFFFFF DUP3 GT OR ISZERO PUSH2 0x317 JUMPI PUSH2 0x316 PUSH2 0x2C0 JUMP JUMPDEST JUMPDEST DUP1 PUSH1 0x40 MSTORE POP POP POP JUMP JUMPDEST PUSH1 0x0 PUSH2 0x32A PUSH2 0x291 JUMP JUMPDEST SWAP1 POP PUSH2 0x336 DUP3 DUP3 PUSH2 0x2EF JUMP JUMPDEST SWAP2 SWAP1 POP JUMP JUMPDEST PUSH1 0x0 PUSH8 0xFFFFFFFFFFFFFFFF DUP3 GT ISZERO PUSH2 0x356 JUMPI PUSH2 0x355 PUSH2 0x2C0 JUMP JUMPDEST JUMPDEST PUSH2 0x35F DUP3 PUSH2 0x2AF JUMP JUMPDEST SWAP1 POP PUSH1 0x20 DUP2 ADD SWAP1 POP SWAP2 SWAP1 POP JUMP JUMPDEST DUP3 DUP2 DUP4 CALLDATACOPY PUSH1 0x0 DUP4 DUP4 ADD MSTORE POP POP POP JUMP JUMPDEST PUSH1 0x0 PUSH2 0x38E PUSH2 0x389 DUP5 PUSH2 0x33B JUMP JUMPDEST PUSH2 0x320 JUMP JUMPDEST SWAP1 POP DUP3 DUP2 MSTORE PUSH1 0x20 DUP2 ADD DUP5 DUP5 DUP5 ADD GT ISZERO PUSH2 0x3AA JUMPI PUSH2 0x3A9 PUSH2 0x2AA JUMP JUMPDEST JUMPDEST PUSH2 0x3B5 DUP5 DUP3 DUP6 PUSH2 0x36C JUMP JUMPDEST POP SWAP4 SWAP3 POP POP POP JUMP JUMPDEST PUSH1 0x0 DUP3 PUSH1 0x1F DUP4 ADD SLT PUSH2 0x3D2 JUMPI PUSH2 0x3D1 PUSH2 0x2A5 JUMP JUMPDEST JUMPDEST DUP2 CALLDATALOAD PUSH2 0x3E2 DUP5 DUP3 PUSH1 0x20 DUP7 ADD PUSH2 0x37B JUMP JUMPDEST SWAP2 POP POP SWAP3 SWAP2 POP POP JUMP JUMPDEST PUSH1 0x0 PUSH1 0x20 DUP3 DUP5 SUB SLT ISZERO PUSH2 0x401 JUMPI PUSH2 0x400 PUSH2 0x29B JUMP JUMPDEST JUMPDEST PUSH1 0x0 DUP3 ADD CALLDATALOAD PUSH8 0xFFFFFFFFFFFFFFFF DUP2 GT ISZERO PUSH2 0x41F JUMPI PUSH2 0x41E PUSH2 0x2A0 JUMP JUMPDEST JUMPDEST PUSH2 0x42B DUP5 DUP3 DUP6 ADD PUSH2 0x3BD JUMP JUMPDEST SWAP2 POP POP SWAP3 SWAP2 POP POP JUMP JUMPDEST PUSH1 0x0 DUP2 ISZERO ISZERO SWAP1 POP SWAP2 SWAP1 POP JUMP JUMPDEST PUSH2 0x449 DUP2 PUSH2 0x434 JUMP JUMPDEST DUP3 MSTORE POP POP JUMP JUMPDEST PUSH1 0x0 PUSH1 0x20 DUP3 ADD SWAP1 POP PUSH2 0x464 PUSH1 0x0 DUP4 ADD DUP5 PUSH2 0x440 JUMP JUMPDEST SWAP3 SWAP2 POP POP JUMP JUMPDEST PUSH1 0x0 DUP1 REVERT JUMPDEST PUSH1 0x0 DUP1 REVERT JUMPDEST PUSH1 0x0 DUP1 DUP4 PUSH1 0x1F DUP5 ADD SLT PUSH2 0x48A JUMPI PUSH2 0x489 PUSH2 0x2A5 JUMP JUMPDEST JUMPDEST DUP3 CALLDATALOAD SWAP1 POP PUSH8 0xFFFFFFFFFFFFFFFF DUP2 GT ISZERO PUSH2 0x4A7 JUMPI PUSH2 0x4A6 PUSH2 0x46A JUMP JUMPDEST JUMPDEST PUSH1 0x20 DUP4 ADD SWAP2 POP DUP4 PUSH1 0x1 DUP3 MUL DUP4 ADD GT ISZERO PUSH2 0x4C3 JUMPI PUSH2 0x4C2 PUSH2 0x46F JUMP JUMPDEST JUMPDEST SWAP3 POP SWAP3 SWAP1 POP JUMP JUMPDEST PUSH1 0x0 DUP1 PUSH1 0x0 DUP1 PUSH1 0x40 DUP6 DUP8 SUB SLT ISZERO PUSH2 0x4E4 JUMPI PUSH2 0x4E3 PUSH2 0x29B JUMP JUMPDEST JUMPDEST PUSH1 0x0 DUP6 ADD CALLDATALOAD PUSH8 0xFFFFFFFFFFFFFFFF DUP2 GT ISZERO PUSH2 0x502 JUMPI PUSH2 0x501 PUSH2 0x2A0 JUMP JUMPDEST JUMPDEST PUSH2 0x50E DUP8 DUP3 DUP9 ADD PUSH2 0x474 JUMP JUMPDEST SWAP5 POP SWAP5 POP POP PUSH1 0x20 DUP6 ADD CALLDATALOAD PUSH8 0xFFFFFFFFFFFFFFFF DUP2 GT ISZERO PUSH2 0x531 JUMPI PUSH2 0x530 PUSH2 0x2A0 JUMP JUMPDEST JUMPDEST PUSH2 0x53D DUP8 DUP3 DUP9 ADD PUSH2 0x474 JUMP JUMPDEST SWAP3 POP SWAP3 POP POP SWAP3 SWAP6 SWAP2 SWAP5 POP SWAP3 POP JUMP JUMPDEST PUSH2 0x554 DUP2 PUSH2 0x434 JUMP JUMPDEST DUP2 EQ PUSH2 0x55F JUMPI PUSH1 0x0 DUP1 REVERT JUMPDEST POP JUMP JUMPDEST PUSH1 0x0 DUP2 CALLDATALOAD SWAP1 POP PUSH2 0x571 DUP2 PUSH2 0x54B JUMP JUMPDEST SWAP3 SWAP2 POP POP JUMP JUMPDEST PUSH1 0x0 PUSH1 0x20 DUP3 DUP5 SUB SLT ISZERO PUSH2 0x58D JUMPI PUSH2 0x58C PUSH2 0x29B JUMP JUMPDEST JUMPDEST PUSH1 0x0 PUSH2 0x59B DUP5 DUP3 DUP6 ADD PUSH2 0x562 JUMP JUMPDEST SWAP2 POP POP SWAP3 SWAP2 POP POP JUMP JUMPDEST PUSH1 0x0 DUP2 SWAP1 POP SWAP3 SWAP2 POP POP JUMP JUMPDEST PUSH1 0x0 PUSH2 0x5BB DUP4 DUP6 PUSH2 0x5A4 JUMP JUMPDEST SWAP4 POP PUSH2 0x5C8 DUP4 DUP6 DUP5 PUSH2 0x36C JUMP JUMPDEST DUP3 DUP5 ADD SWAP1 POP SWAP4 SWAP3 POP POP POP JUMP JUMPDEST PUSH32 0x3A00000000000000000000000000000000000000000000000000000000000000 PUSH1 0x0 DUP3 ADD MSTORE POP JUMP JUMPDEST PUSH1 0x0 PUSH2 0x60A PUSH1 0x1 DUP4 PUSH2 0x5A4 JUMP JUMPDEST SWAP2 POP PUSH2 0x615 DUP3 PUSH2 0x5D4 JUMP JUMPDEST PUSH1 0x1 DUP3 ADD SWAP1 POP SWAP2 SWAP1 POP JUMP JUMPDEST PUSH1 0x0 PUSH2 0x62D DUP3 DUP7 DUP9 PUSH2 0x5AF JUMP JUMPDEST SWAP2 POP PUSH2 0x638 DUP3 PUSH2 0x5FD JUMP JUMPDEST SWAP2 POP PUSH2 0x645 DUP3 DUP5 DUP7 PUSH2 0x5AF JUMP JUMPDEST SWAP2 POP DUP2 SWAP1 POP SWAP6 SWAP5 POP POP POP POP POP JUMP JUMPDEST PUSH1 0x0 DUP2 MLOAD SWAP1 POP SWAP2 SWAP1 POP JUMP JUMPDEST PUSH1 0x0 DUP2 SWAP1 POP SWAP3 SWAP2 POP POP JUMP JUMPDEST PUSH1 0x0 JUMPDEST DUP4 DUP2 LT ISZERO PUSH2 0x687 JUMPI DUP1 DUP3 ADD MLOAD DUP2 DUP5 ADD MSTORE PUSH1 0x20 DUP2 ADD SWAP1 POP PUSH2 0x66C JUMP JUMPDEST PUSH1 0x0 DUP5 DUP5 ADD MSTORE POP POP POP POP JUMP JUMPDEST PUSH1 0x0 PUSH2 0x69E DUP3 PUSH2 0x653 JUMP JUMPDEST PUSH2 0x6A8 DUP2 DUP6 PUSH2 0x65E JUMP JUMPDEST SWAP4 POP PUSH2 0x6B8 DUP2 DUP6 PUSH1 0x20 DUP7 ADD PUSH2 0x669 JUMP JUMPDEST DUP1 DUP5 ADD SWAP2 POP POP SWAP3 SWAP2 POP POP JUMP JUMPDEST PUSH1 0x0 PUSH2 0x6D0 DUP3 DUP5 PUSH2 0x693 JUMP JUMPDEST SWAP2 POP DUP2 SWAP1 POP SWAP3 SWAP2 POP POP JUMP JUMPDEST PUSH32 0x7075736800000000000000000000000000000000000000000000000000000000 PUSH1 0x0 DUP3 ADD MSTORE POP JUMP JUMPDEST PUSH1 0x0 PUSH2 0x711 PUSH1 0x4 DUP4 PUSH2 0x5A4 JUMP JUMPDEST SWAP2 POP PUSH2 0x71C DUP3 PUSH2 0x6DB JUMP JUMPDEST PUSH1 0x4 DUP3 ADD SWAP1 POP SWAP2 SWAP1 POP JUMP JUMPDEST PUSH32 0x3930303000000000000000000000000000000000000000000000000000000000 PUSH1 0x0 DUP3 ADD MSTORE POP JUMP JUMPDEST PUSH1 0x0 PUSH2 0x75D PUSH1 0x4 DUP4 PUSH2 0x5A4 JUMP JUMPDEST SWAP2 POP PUSH2 0x768 DUP3 PUSH2 0x727 JUMP JUMPDEST PUSH1 0x4 DUP3 ADD SWAP1 POP SWAP2 SWAP1 POP JUMP JUMPDEST PUSH1 0x0 PUSH2 0x77E DUP3 PUSH2 0x704 JUMP JUMPDEST SWAP2 POP PUSH2 0x789 DUP3 PUSH2 0x5FD JUMP JUMPDEST SWAP2 POP PUSH2 0x794 DUP3 PUSH2 0x750 JUMP JUMPDEST SWAP2 POP DUP2 SWAP1 POP SWAP2 SWAP1 POP JUMP JUMPDEST PUSH1 0x0 DUP3 DUP3 MSTORE PUSH1 0x20 DUP3 ADD SWAP1 POP SWAP3 SWAP2 POP POP JUMP JUMPDEST PUSH1 0x0 PUSH2 0x7BC PUSH1 0x4 DUP4 PUSH2 0x79E JUMP JUMPDEST SWAP2 POP PUSH2 0x7C7 DUP3 PUSH2 0x6DB JUMP JUMPDEST PUSH1 0x20 DUP3 ADD SWAP1 POP SWAP2 SWAP1 POP JUMP JUMPDEST PUSH1 0x0 PUSH2 0x7DF PUSH1 0x4 DUP4 PUSH2 0x79E JUMP JUMPDEST SWAP2 POP PUSH2 0x7EA DUP3 PUSH2 0x727 JUMP JUMPDEST PUSH1 0x20 DUP3 ADD SWAP1 POP SWAP2 SWAP1 POP JUMP JUMPDEST PUSH1 0x0 PUSH1 0x60 DUP3 ADD SWAP1 POP PUSH2 0x80A PUSH1 0x0 DUP4 ADD DUP5 PUSH2 0x440 JUMP JUMPDEST DUP2 DUP2 SUB PUSH1 0x20 DUP4 ADD MSTORE PUSH2 0x81B DUP2 PUSH2 0x7AF JUMP JUMPDEST SWAP1 POP DUP2 DUP2 SUB PUSH1 0x40 DUP4 ADD MSTORE PUSH2 0x82E DUP2 PUSH2 0x7D2 JUMP JUMPDEST SWAP1 POP SWAP3 SWAP2 POP POP JUMP JUMPDEST PUSH1 0x0 PUSH2 0x842 DUP4 DUP6 PUSH2 0x79E JUMP JUMPDEST SWAP4 POP PUSH2 0x84F DUP4 DUP6 DUP5 PUSH2 0x36C JUMP JUMPDEST PUSH2 0x858 DUP4 PUSH2 0x2AF JUMP JUMPDEST DUP5 ADD SWAP1 POP SWAP4 SWAP3 POP POP POP JUMP JUMPDEST PUSH1 0x0 PUSH1 0x80 DUP3 ADD SWAP1 POP DUP2 DUP2 SUB PUSH1 0x0 DUP4 ADD MSTORE PUSH2 0x87E DUP2 DUP7 DUP9 PUSH2 0x836 JUMP JUMPDEST SWAP1 POP DUP2 DUP2 SUB PUSH1 0x20 DUP4 ADD MSTORE PUSH2 0x893 DUP2 DUP5 DUP7 PUSH2 0x836 JUMP JUMPDEST SWAP1 POP DUP2 DUP2 SUB PUSH1 0x40 DUP4 ADD MSTORE PUSH2 0x8A6 DUP2 PUSH2 0x7AF JUMP JUMPDEST SWAP1 POP DUP2 DUP2 SUB PUSH1 0x60 DUP4 ADD MSTORE PUSH2 0x8B9 DUP2 PUSH2 0x7D2 JUMP JUMPDEST SWAP1 POP SWAP6 SWAP5 POP POP POP POP POP JUMP INVALID LOG2 PUSH5 0x6970667358 0x22 SLT KECCAK256 0xE SWAP8 0xAD 0xF8 DUP2 RETURN 0xC0 0xC3 0x4E ORIGIN 0xC3 0x4A 0x2C XOR DUP14 0xE8 0xA8 0xF9 0xBB COINBASE CALLVALUE 0xC1 SWAP5 SWAP12 0xAD PUSH29 0x52680C5C616A64736F6C63430008160033000000000000000000000000 "},"methodIdentifiers":{"guardActive(bytes)":"37b80676","isGuardActive(string,string)":"90b62635","reportThreat(string,string)":"db446f1f","toggleGuard(bool)":"c5eeeacd"}}}}}